{
  "contractName": "Launchpad",
  "abi": [
    {
      "inputs": [
        {
          "internalType": "string",
          "name": "_tokenName",
          "type": "string"
        },
        {
          "internalType": "string",
          "name": "_tokenSymbol",
          "type": "string"
        },
        {
          "internalType": "string",
          "name": "_tokenLogo",
          "type": "string"
        },
        {
          "internalType": "uint256",
          "name": "_ethAmount",
          "type": "uint256"
        }
      ],
      "stateMutability": "nonpayable",
      "type": "constructor"
    },
    {
      "inputs": [],
      "name": "ethAmount",
      "outputs": [
        {
          "internalType": "uint256",
          "name": "",
          "type": "uint256"
        }
      ],
      "stateMutability": "view",
      "type": "function"
    },
    {
      "inputs": [],
      "name": "tokenLogo",
      "outputs": [
        {
          "internalType": "string",
          "name": "",
          "type": "string"
        }
      ],
      "stateMutability": "view",
      "type": "function"
    },
    {
      "inputs": [],
      "name": "tokenName",
      "outputs": [
        {
          "internalType": "string",
          "name": "",
          "type": "string"
        }
      ],
      "stateMutability": "view",
      "type": "function"
    },
    {
      "inputs": [],
      "name": "tokenSymbol",
      "outputs": [
        {
          "internalType": "string",
          "name": "",
          "type": "string"
        }
      ],
      "stateMutability": "view",
      "type": "function"
    },
    {
      "inputs": [],
      "name": "initiateFairLaunch",
      "outputs": [],
      "stateMutability": "payable",
      "type": "function"
    },
    {
      "inputs": [
        {
          "internalType": "uint256",
          "name": "amount",
          "type": "uint256"
        }
      ],
      "name": "buyTokens",
      "outputs": [],
      "stateMutability": "payable",
      "type": "function"
    }
  ],
  "bytecode": "0x608060405234801562000010575f80fd5b5060405162000dc538038062000dc5833981810160405281019062000036919062000350565b5f8451116200007c576040517f08c379a000000000000000000000000000000000000000000000000000000000815260040162000073906200047a565b60405180910390fd5b5f835111620000c2576040517f08c379a0000000000000000000000000000000000000000000000000000000008152600401620000b990620004e8565b60405180910390fd5b5f82511162000108576040517f08c379a0000000000000000000000000000000000000000000000000000000008152600401620000ff9062000556565b60405180910390fd5b5f81116200014d576040517f08c379a00000000000000000000000000000000000000000000000000000000081526004016200014490620005ea565b60405180910390fd5b835f90816200015d919062000838565b5082600190816200016f919062000838565b50816002908162000181919062000838565b5080600381905550505050506200091c565b5f604051905090565b5f80fd5b5f80fd5b5f80fd5b5f80fd5b5f601f19601f8301169050919050565b7f4e487b71000000000000000000000000000000000000000000000000000000005f52604160045260245ffd5b620001f482620001ac565b810181811067ffffffffffffffff82111715620002165762000215620001bc565b5b80604052505050565b5f6200022a62000193565b9050620002388282620001e9565b919050565b5f67ffffffffffffffff8211156200025a5762000259620001bc565b5b6200026582620001ac565b9050602081019050919050565b5f5b838110156200029157808201518184015260208101905062000274565b5f8484015250505050565b5f620002b2620002ac846200023d565b6200021f565b905082815260208101848484011115620002d157620002d0620001a8565b5b620002de84828562000272565b509392505050565b5f82601f830112620002fd57620002fc620001a4565b5b81516200030f8482602086016200029c565b91505092915050565b5f819050919050565b6200032c8162000318565b811462000337575f80fd5b50565b5f815190506200034a8162000321565b92915050565b5f805f80608085870312156200036b576200036a6200019c565b5b5f85015167ffffffffffffffff8111156200038b576200038a620001a0565b5b6200039987828801620002e6565b945050602085015167ffffffffffffffff811115620003bd57620003bc620001a0565b5b620003cb87828801620002e6565b935050604085015167ffffffffffffffff811115620003ef57620003ee620001a0565b5b620003fd87828801620002e6565b925050606062000410878288016200033a565b91505092959194509250565b5f82825260208201905092915050565b7f546f6b656e206e616d65206973207265717569726564000000000000000000005f82015250565b5f620004626016836200041c565b91506200046f826200042c565b602082019050919050565b5f6020820190508181035f830152620004938162000454565b9050919050565b7f546f6b656e2073796d626f6c20697320726571756972656400000000000000005f82015250565b5f620004d06018836200041c565b9150620004dd826200049a565b602082019050919050565b5f6020820190508181035f8301526200050181620004c2565b9050919050565b7f546f6b656e206c6f676f206973207265717569726564000000000000000000005f82015250565b5f6200053e6016836200041c565b91506200054b8262000508565b602082019050919050565b5f6020820190508181035f8301526200056f8162000530565b9050919050565b7f45544820616d6f756e74206d7573742062652067726561746572207468616e205f8201527f7a65726f00000000000000000000000000000000000000000000000000000000602082015250565b5f620005d26024836200041c565b9150620005df8262000576565b604082019050919050565b5f6020820190508181035f8301526200060381620005c4565b9050919050565b5f81519050919050565b7f4e487b71000000000000000000000000000000000000000000000000000000005f52602260045260245ffd5b5f60028204905060018216806200065957607f821691505b6020821081036200066f576200066e62000614565b5b50919050565b5f819050815f5260205f209050919050565b5f6020601f8301049050919050565b5f82821b905092915050565b5f60088302620006d37fffffffffffffffffffffffffffffffffffffffffffffffffffffffffffffffff8262000696565b620006df868362000696565b95508019841693508086168417925050509392505050565b5f819050919050565b5f620007206200071a620007148462000318565b620006f7565b62000318565b9050919050565b5f819050919050565b6200073b8362000700565b620007536200074a8262000727565b848454620006a2565b825550505050565b5f90565b620007696200075b565b6200077681848462000730565b505050565b5b818110156200079d57620007915f826200075f565b6001810190506200077c565b5050565b601f821115620007ec57620007b68162000675565b620007c18462000687565b81016020851015620007d1578190505b620007e9620007e08562000687565b8301826200077b565b50505b505050565b5f82821c905092915050565b5f6200080e5f1984600802620007f1565b1980831691505092915050565b5f620008288383620007fd565b9150826002028217905092915050565b62000843826200060a565b67ffffffffffffffff8111156200085f576200085e620001bc565b5b6200086b825462000641565b62000878828285620007a1565b5f60209050601f831160018114620008ae575f841562000899578287015190505b620008a585826200081b565b86555062000914565b601f198416620008be8662000675565b5f5b82811015620008e757848901518255600182019150602085019450602081019050620008c0565b8683101562000907578489015162000903601f891682620007fd565b8355505b6001600288020188555050505b505050505050565b61049b806200092a5f395ff3fe608060405260043610610054575f3560e01c8063291526ac146100585780633610724e146100825780636c02a9311461009e5780637b61c320146100c8578063c5be43bf146100f2578063c98166c0146100fc575b5f80fd5b348015610063575f80fd5b5061006c610126565b604051610079919061035e565b60405180910390f35b61009c600480360381019061009791906103b5565b6101b2565b005b3480156100a9575f80fd5b506100b26101b5565b6040516100bf919061035e565b60405180910390f35b3480156100d3575f80fd5b506100dc610240565b6040516100e9919061035e565b60405180910390f35b6100fa6102cc565b005b348015610107575f80fd5b506101106102ce565b60405161011d91906103ef565b60405180910390f35b6002805461013390610435565b80601f016020809104026020016040519081016040528092919081815260200182805461015f90610435565b80156101aa5780601f10610181576101008083540402835291602001916101aa565b820191905f5260205f20905b81548152906001019060200180831161018d57829003601f168201915b505050505081565b50565b5f80546101c190610435565b80601f01602080910402602001604051908101604052809291908181526020018280546101ed90610435565b80156102385780601f1061020f57610100808354040283529160200191610238565b820191905f5260205f20905b81548152906001019060200180831161021b57829003601f168201915b505050505081565b6001805461024d90610435565b80601f016020809104026020016040519081016040528092919081815260200182805461027990610435565b80156102c45780601f1061029b576101008083540402835291602001916102c4565b820191905f5260205f20905b8154815290600101906020018083116102a757829003601f168201915b505050505081565b565b60035481565b5f81519050919050565b5f82825260208201905092915050565b5f5b8381101561030b5780820151818401526020810190506102f0565b5f8484015250505050565b5f601f19601f8301169050919050565b5f610330826102d4565b61033a81856102de565b935061034a8185602086016102ee565b61035381610316565b840191505092915050565b5f6020820190508181035f8301526103768184610326565b905092915050565b5f80fd5b5f819050919050565b61039481610382565b811461039e575f80fd5b50565b5f813590506103af8161038b565b92915050565b5f602082840312156103ca576103c961037e565b5b5f6103d7848285016103a1565b91505092915050565b6103e981610382565b82525050565b5f6020820190506104025f8301846103e0565b92915050565b7f4e487b71000000000000000000000000000000000000000000000000000000005f52602260045260245ffd5b5f600282049050600182168061044c57607f821691505b60208210810361045f5761045e610408565b5b5091905056fea2646970667358221220a459cc3350aa0302322ddc7f5d3f1694e8bae23519c4c913d0be8de7dd2ef73764736f6c63430008150033",
  "immutableReferences": {},
  "source": "// SPDX-License-Identifier: MIT\r\npragma solidity ^0.8.0;\r\n\r\ncontract Launchpad {\r\n    string public tokenName;\r\n    string public tokenSymbol;\r\n    string public tokenLogo;\r\n    uint256 public ethAmount;\r\n\r\n    constructor(string memory _tokenName, string memory _tokenSymbol, string memory _tokenLogo, uint256 _ethAmount) {\r\n        require(bytes(_tokenName).length > 0, \"Token name is required\");\r\n        require(bytes(_tokenSymbol).length > 0, \"Token symbol is required\");\r\n        require(bytes(_tokenLogo).length > 0, \"Token logo is required\");\r\n        require(_ethAmount > 0, \"ETH amount must be greater than zero\");\r\n\r\n        tokenName = _tokenName;\r\n        tokenSymbol = _tokenSymbol;\r\n        tokenLogo = _tokenLogo;\r\n        ethAmount = _ethAmount;\r\n    }\r\n\r\n    function initiateFairLaunch() public payable {\r\n        // Fair launch logic\r\n    }\r\n\r\n    function buyTokens(uint256 amount) public payable {\r\n        // Token buying logic\r\n    }\r\n}\r\n",
  "sourcePath": "C:\\Users\\junwo\\Desktop\\School\\Computer\\launchpad-project\\contracts\\Launchpad.sol",
  "compiler": {
    "name": "solc",
    "version": "0.8.21+commit.d9974bed.Emscripten.clang"
  },
  "schemaVersion": "3.4.16",
  "updatedAt": "2024-08-06T08:54:39.811Z",
  "devdoc": {
    "kind": "dev",
    "methods": {},
    "version": 1
  },
  "userdoc": {
    "kind": "user",
    "methods": {},
    "version": 1
  }
}